:020000040800F2
:10000000983C00203D0200085909000855090008E5
:100010005709000879080008AD0D0008000000002D
:10002000000000000000000000000000A501000822
:10003000C508000800000000E9010008050C0008E0
:10004000570200085702000857020008570200082C
:10005000570200085702000857020008570200081C
:10006000570200085702000857020008570200080C
:1000700057020008570200085702000857020008FC
:1000800057020008570200085702000857020008EC
:1000900057020008570200085702000857020008DC
:1000A00057020008570200085702000857020008CC
:1000B00057020008570200085702000857020008BC
:1000C00057020008570200085702000857020008AC
:1000D000570200085702000857020008570200089C
:1000E000570200085702000857020008570200088C
:1000F0005702000800F002F800F045F80AA090E866
:10010000000C82448344AAF10107DA4501D100F0D2
:100110003AF8AFF2090EBAE80F0013F0010F18BF5A
:10012000FB1A43F001031847E42C0000042D0000E3
:10013000103A24BF78C878C1FAD8520724BF30C813
:1001400030C144BF04680C607047000000230024E5
:1001500000250026103A28BF78C1FBD8520728BFD7
:1001600030C148BF0B607047642900F0E5807829F2
:1001700000F01E81732900F0B782002070471FB580
:100180001FBD10B510BD00F044FB1146FFF7F7FF8F
:1001900000F0B4FE00F062FB03B4FFF7F2FF03BC13
:1001A00000F00CFE224B19680868B0E8F00F80F3ED
:1001B0000988BFF36F8F4FF0000080F311884EF075
:1001C0000D0E70470000000006480068006880F3CC
:1001D000088862B661B6BFF34F8FBFF36F8F00DF41
:1001E00000BF00BF08ED00E0EFF30980BFF36F8FA1
:1001F0000F4B1A6820E9F00F106008B54FF050005F
:1002000080F31188BFF34F8FBFF36F8F01F0B6FFFC
:100210004FF0000080F31188BDE8084019680868B5
:10022000B0E8F00F80F30988BFF36F8F704700BF0D
:1002300034000020EFF30580704700000948804734
:1002400009480047FEE7FEE7FEE7FEE7FEE7FEE7B8
:10025000FEE7FEE7FEE7FEE704480549054A064BD0
:1002600070470000190C0008F5000008982C0020C9
:10027000983C0020983800209838002070470000F3
:100280000FB4044910B503AA029800F031FA10BC6B
:100290005DF814FB0C00002070B504468569006809
:1002A000C10601D5302600E02026C00707D070BD6A
:1002B000D4E9012130469047206A401C20626D1E1F
:1002C000F6D570BD70B5044685690078C00707D1C2
:1002D00070BDD4E9012120209047206A401C206293
:1002E0006D1EF6D570BD70B50C460546012A05D0C9
:1002F0002878800600D5EA69002302E0012305E0A2
:100300005B1C934202D2E05C0028F9D1A869E61890
:10031000C01AA861286A184428622846FFF7BCFF63
:1003200004E0D5E9012114F8010B9047B442F8D359
:100330002846FFF7C7FF70BD2DE9F04106460024AF
:1003400010687529314616A510D0AFF3008000283B
:1003500002DA404213A507E031688A0701D512A5E9
:1003600002E0490704D511A5012401E0AFF30080A4
:1003700000210A2206F1240709E0B0FBF2FCB0FBE1
:10038000F2F302FB1C00303078541846491C002858
:10039000F3D123462A463046BDE8F04100F021B9AA
:1003A000000000002D0000002B00000020000000D5
:1003B00070B504460D4621461068AFF300802188D1
:1003C000090502D50F4A7A4402E00E4A7A440E32F9
:1003D000002104F1240305E000F00F060009965DFA
:1003E0005E54491C0028F7D120780023000704D56B
:1003F000702D02D009B1022311322046BDE87040B1
:1004000000F0EFB8082A00002DE9F05F89460446A5
:100410004FF0000ADFF824B1FB44C0F820A02046CA
:10042000E168884700287DD0252806D0D4E901213D
:100430009047206A401C2062F1E700255F46204675
:10044000E16888472028064607DB312E05D2B81917
:1004500010F8200C08B10543F1E7A80701D525F0F5
:100460000405C4F81CA00027C4F818A02A2E09D03F
:10047000304600F09CFC38B304EB8708303EC8F8E7
:10048000186019E059F8041B204604EB87029161BB
:10049000E1688847012F064618D1E069002820DA74
:1004A00025F020051DE0D8F8180000EB800006EBD1
:1004B00040003038C8F818002046E16888470646F2
:1004C00000F075FC0028EED1012F0AD02E2E08D1A5
:1004D0002046E16888477F1C0646022F45F020052C
:1004E000C4DBA069002803DA404245F00105A061A1
:1004F000E80701D025F01005A6B1A6F141001928A2
:1005000002D8203645F400654A463146204625602B
:100510004D46FFF729FE60B1012807D0ED1D25F0FB
:10052000070000E007E000F1080978E705F1040999
:1005300075E730467AE7206ABDE8F09FDE290000C3
:10054000032A40F2308010F0030C00F0158011F8FF
:10055000013BBCF1020F624498BF11F801CB00F8D7
:10056000013B38BF11F8013BA2F1040298BF00F82B
:1005700001CB38BF00F8013B11F0030300F0CA8043
:10058000083AC0F0088051F8043B083A51F804CB0F
:10059000A0E80810F5E7121D5CBF51F8043B40F8D5
:1005A000043BAFF30080D20724BF11F8013B11F8E0
:1005B00001CB48BF11F8012B24BF00F8013B00F824
:1005C00001CB48BF00F8012B704702F0FF0343EA5C
:1005D000032242EA024200F0D1B8704770477047E8
:1005E00070472DE9F0470D4699469246044600F1C2
:1005F00024080168880604D5E06921F01001216013
:1006000000E00120A84201DD471B00E00027A169AE
:100610007A1902EB0900081AA0612078C00602D4FA
:100620002046FFF739FE002608E0D4E901211AF838
:1006300006009047206A401C761C20624E45F4DB81
:100640002078C0060AD52046FFF726FE06E0D4E94A
:10065000012130209047206A401C2062381EA7F1FB
:100660000107F4DC07E0D4E9012118F80500904700
:10067000206A401C2062281EA5F10105F3DC2046FB
:10068000FFF720FE2078000602D50220BDE8F087A3
:100690000120FBE701694A1C02610878704700B538
:1006A0008FB0CDE901310021059105497944CDE9AB
:1006B000031011466846FFF7A7FE0FB000BD00000B
:1006C000E5FFFFFF10B5436913B1AFF3008001E010
:1006D000FFF709FE012010BD127800F124010A7015
:1006E00000224A700122EDE711684FF0FF32E9E77E
:1006F000074B70B50D467B44FFF7D1FF04462846F3
:1007000000F05CF810B14FF0FF3070BD204670BDB6
:100710007F07000010B5203AC0F00B80B1E81850F8
:10072000203AA0E81850B1E81850A0E81850BFF4DB
:10073000F5AF5FEA027C24BFB1E81850A0E818507A
:1007400044BF18C918C0BDE810405FEA827C24BFCE
:1007500051F8043B40F8043B08BF7047D20728BF5C
:1007600031F8023B48BF11F8012B28BF20F8023BAB
:1007700048BF00F8012B70474FF000020429C0F079
:10078000128010F0030C00F01F80CCF1040CBCF1BF
:10079000020F18BF00F8012BA8BF20F8022BA1EB15
:1007A0000C0100F011B85FEAC17C24BF00F8012BF6
:1007B00000F8012B48BF00F8012B7047007B00F0C8
:1007C000800070474FF0000200B5134694469646ED
:1007D000203922BFA0E80C50A0E80C50B1F1200154
:1007E000BFF4F7AF090728BFA0E80C5048BF0CC002
:1007F0005DF804EB890028BF40F8042B08BF704760
:1008000048BF20F8022B11F0804F18BF00F8012BD1
:100810007047754600F02CF8AE4605006946534611
:1008200020F00700854618B020B5FFF715FDBDE89C
:1008300020404FF000064FF000074FF000084FF047
:10084000000B21F00701AC46ACE8C009ACE8C009D8
:10085000ACE8C009ACE8C0098D46704710B5044645
:10086000AFF300802046BDE81040FFF795BC0000C4
:1008700000487047342C0020FEE700001CB50549F5
:100880000520CDE900010023802203A1064801F0E4
:10089000F9FF1CBD0400002052756E696E675F533E
:1008A0007461746500000000910A0008044A002980
:1008B000516801D0014300E081435160704700005E
:1008C000002004E07047F0B5002201274FF0030E2E
:1008D0000B6807FA02F52B40AB4227D1066853009C
:1008E00091F804C00EFA03F4A6430CFA03FC4CEA98
:1008F000060CC0F800C00E79012E01D0022E0FD1D7
:10090000866891F805C0A6430CFA03FC4CEA060C75
:10091000C0F808C08688AE438D7995403543858000
:10092000C568A543CC799C402C43C460521C102A56
:10093000CED3F0BD4B07DB0E9A40C90810B500EBD3
:100940008100016A0F249C40A1430162016A1143A6
:10095000016210BDFEE7FEE7704700000249084350
:1009600002490860704700000000FA050CED00E045
:10097000094B1A6822F0030202431A600748026812
:1009800022F004020260012903D040BF20BF20BF33
:10099000704730BF704700000070004010ED00E06D
:1009A000044A0029116801D0014300E0814311602D
:1009B000704700001C380240044A0029116801D029
:1009C000014300E08143116070470000203802407D
:1009D00030B5254B1968A3F1040211F00C014FF456
:1009E000004405D004290AD008290AD00C290AD0CD
:1009F0001168C1F34231491C8C40046019E01B4965
:100A000016E01B4914E019681A6801F47011194CBA
:100A100002F4400204EB91410978012404EB925264
:100A20001C6814F4803F1DD0114C6143B1FBF2F1FE
:100A3000016019680F2202EA11110E4A0932545C52
:100A40000168E14041601C68072505EA1424145D33
:100A500021FA04F484601B6805EAD323D25CD140F8
:100A6000C16030BD014CE0E7083802400024F400CA
:100A700000127A00BC0000200449D1F8800218B1AD
:100A80000020C1F8800270470120FAE700004042D0
:100A900000250F4CFFF7F0FF23782722581C207009
:100AA0000C490DA0FFF7ECFB2078FF2800D1257042
:100AB000642001F0E9F9002000F0BEFFC0F18000E1
:100AC00043002F2203490CA0FFF7DAFBE2E7000006
:100AD00000000020B42D000844454255473A28251F
:100AE000732D25642952756E696E675F5374617446
:100AF000653A2025640D0A0044454255473A2825A9
:100B0000732D2564295265666572656E6365207470
:100B100061736B20737461636B2073697A65203D28
:100B20002025640D0A0000000CB500222C4900921B
:100B30000192086840F4803008604FF4A0430868D0
:100B400000F4003001900098401C0090019810B90A
:100B500000989842F3D1086880033FD501200190A6
:100B60002048026842F004020260026842F0020279
:100B70000260026842F001020260194824300268F3
:100B800042F080520260C214174802604268D206E6
:100B9000FCD41348083002680260026802600268F0
:100BA0000260026822F47D020260026842F41102CF
:100BB00002600A6842F080720A600A689201FCD5FD
:100BC000016821F003010160016841F00301016047
:100BD0000168C1F381010329FAD10CBD01920CBD5A
:100BE00000380240003C0240007000404FF0E0211D
:100BF0000428086903D020F004000861704740F021
:100C00000400FAE710B501F069FE012803D0BDE841
:100C1000104001F06BBB10BD104800B5016841F4F5
:100C2000807101600D4908310A680D4B1A400A6055
:100C300002680C4B1A400260026822F480220260B3
:100C4000086820F47D000860091D00200860FFF797
:100C50006BFF05494FF00060086000BD003802409E
:100C60000CC0FF88FEFFFEEE08ED00E070B5054603
:100C7000012186B08803FFF79FFE01210846FFF798
:100C80008FFE1A4E072209213046FFF753FE072236
:100C90000A213046FFF74EFE4FF4C0600490022058
:100CA0008DF8140003208DF8150000248DF81640EF
:100CB00001208DF8170004A93046FFF704FEADF8B7
:100CC0000440ADF80640ADF80840ADF80C400C20EB
:100CD000074CADF80A0000956946204600F014F86C
:100CE0000121204600F006F806B070BD0000024069
:100CF000003801400029818902D041F4005101E00F
:100D000021F40051818170477FB50446008A0D4669
:100D100020F44051E88808432082A18941F20C6008
:100D20008143A8882A8910436A890A431043A08115
:100D3000A08A20F44071A8890843A0826846FFF782
:100D400047FE1948844201D1039800E00298A18926
:100D5000090400EBC00101EB0010296801D549002E
:100D600000E08900B0FBF1F06422B0FBF2F1090170
:100D70000B096FF018056B4300EB8300A3891D047A
:100D80004FF0320306D503EBC000B0FBF2F000F0E9
:100D9000070005E003EB0010B0FBF2F000F00F00DD
:100DA000084320817FBD000000380140FEE7303855
:100DB0000A2801D201207047002070477047FFF7D2
:100DC0005DBD10B500F064F8BDE81040AFF30080E1
:100DD0001CB501210846FFF7E3FD01208DF8040052
:100DE00000218DF806108DF805108DF80700009091
:100DF00069460248FFF767FD1CBD00000000024085
:100E000010B50420FFF7F2FE0C480D490D4A0068AA
:100E1000B0FBF1F3B0FBF1F142F2107041431370FB
:100E20000A2050804FF0E020026942F00202026185
:100E30004161016941F00101016110BD1400002010
:100E400040420F000800002009490120096809B14B
:100E5000002070470749CA69002AF9D1044A28329C
:100E600012688968491E8A42F3D102207047000047
:100E7000D00300203400002004490A885206FCD523
:100E8000024AC1B2121D11807047000000380140B3
:100E900070B50F490F4A0020831893F850300B5457
:100EA000401CC0B20C28F7D334220B490BA0FFF72B
:100EB000E7F9074D0024295D0EA0FFF7E1F9641C56
:100EC000E4B20C2CF7D3BDE8704009A0FFF7D8B905
:100ED000D80000200000F81FC12D000844454255ED
:100EE000473A2825732D2564294348495049443AF7
:100EF0000D0A000025303278000000001CB50120EA
:100F000080F310880146FFF7D1FC4FF44070FFF7E3
:100F100025FDFFF775FF4FF4E130FFF7A7FEFFF760
:100F200050FF5222084909A0FFF7AAF912490120EF
:100F3000CDE900010202002310A1134801F0A2FC38
:100F400001F0A4F8FEE70000CD2D0008444542550D
:100F5000473A2825732D2564294E657263697461AB
:100F600020323032302F30392F3037204020763148
:100F70002E300D0A00000000100000207374617212
:100F8000745F7461736B0000F11900082DE9F04182
:100F9000184E0F460446F5683068001D00F038FD15
:100FA00038B9306890F82C100120884031698143AD
:100FB0003161601C07D137B13168BDE8F0410E489E
:100FC000091D00F067BD30682C44AC4244603168B4
:100FD00005D2B06BBDE8F041091D00F043BD706B58
:100FE000091D00F03FFDB06A844200D2B462BDE842
:100FF000F081000034000020F80300202DE9F041CA
:10100000054600F053FD2D4EB068401CB0603068BE
:101010002B4F10B1706930B32BE03560B0680128F8
:1010200027D1002404EB840007EB800000F00CFDC6
:10103000641C202CF6D3234800F006FD2148143010
:1010400000F002FD1F48283000F0FEFC1D483C3037
:1010500000F0FAFC1B48503000F0F6FC19487063B1
:101060001430B06305E03068E96AC06A884200D88D
:101070003560706A0121401C7062A864E86A3269B8
:1010800081401143316100EB800007EB8000291D96
:1010900000F000FD00F046FD706900280CD03068BB
:1010A000E96AC06A884207D207494FF08050086059
:1010B000BFF34F8FBFF36F8FBDE8F0813400002086
:1010C00028010020A803002004ED00E010B500F086
:1010D000EDFC0E4C2068A0B90D4800F0B5FC0C48A2
:1010E000143000F0B1FC0A48E060143020610022A6
:1010F0001021052001F010F9206010B105A100F0C9
:101100008FFEBDE8104000F00DBD00007000002013
:101110000C040020546D72510000000030B4026CC9
:101120000B46002A0BD0C1681144C1608468A142FB
:1011300001D30168C16030BC1846FFF701BA30BC6A
:1011400070472DE9F041856B174604460026026C76
:1011500082B1C7B1E068FFF7F3F9E168206C091AC2
:10116000E1602268914202D2A168081AE060022F71
:1011700016D017E02068A8B9A06801F039FC06462F
:101180000020A0600EE06068FFF7DAF9216C60686B
:1011900008446060A168884204D32068606001E070
:1011A00005B16D1E6D1CA5633046BDE8F08110B51C
:1011B0000446006B00F0E8FC2046BDE8104000F05B
:1011C000E3BC00000A4900200A69012A00D9012075
:1011D0000A68D26A0AB100207047064A1268012ADA
:1011E000F9D80028F7D1886AC968401A704700000A
:1011F000340000202801002010484FF420514207FD
:1012000006D0C01D0D4920F00700411AC1F520513C
:101210000B4A00230144C2E900030839183A21F0BF
:10122000070111604B600B600B1AC0E9001393605B
:101230004FF00040536050617047000034040020BC
:10124000B40000201E4D1F4E11E000F02FFCF0688E
:10125000C468201D00F0DCFBA868401EA860686818
:10126000401E686000F05EFC2046FFF7A0FF686843
:101270000028EAD114480068012807D913494FF023
:1012800080500860BFF34F8FBFF36F8FFFF79AFF57
:101290000228D8D300F06AFFA86AE968884205D21C
:1012A00040F696520AA10FA0FEF7EAFFFFF78AFF69
:1012B000022801D300F0D8FC01F044FCC3E7000091
:1012C00034000020E40300202801002004ED00E0A9
:1012D0002E2E5C4672656552544F535C7461736B7D
:1012E000732E63004572726F723A25732C25640D5C
:1012F0000A0000002DE9F05FDDE90B940E46174669
:10130000834691009A460A9DA522206BFFF75DF95E
:101310006FF00301206B01EB8701084420F0070701
:10132000780705D04FF459721CA121A0FEF7A8FF41
:101330004FF0000866B100202218315C82F83410AA
:10134000315C11B1401C1428F6D384F8478001E0C9
:1013500084F83480202D00D31F25E562C4E9145899
:10136000201D00F07CFB04F1180000F078FB2461E4
:10137000C5F120006462A061C4F8588084F85C80E4
:1013800052465946384600F021FB2060B9F1000F63
:1013900001D0C9F80040BDE8F09F00002E2E5C4649
:1013A00072656552544F535C7461736B732E6300A6
:1013B0004572726F723A25732C25640D0A00000085
:1013C00030B5114900E011460A688242FBD34B68F0
:1013D0005C18844203D1406818444860084643685A
:1013E0001C18944209D1084C183C2468A24209D028
:1013F00052681A4442600A6812680260814200D052
:10140000086030BD0460F9E7B400002070B5002426
:1014100041600B4D0061914206D8D11A8269914218
:1014200006D2011D286907E09A4203D2994201D3EE
:10143000012403E0011DE86800F014FB204670BDA4
:101440007000002010B5044600F030FBA06B20B106
:10145000002400F067FB204610BD0124F9E70000DE
:10146000F1B500980026846C2CB940F6493216A1DB
:101470001AA0FEF705FFA06BE16B884205D340F68A
:101480004A3211A115A0FEF7FBFEA06BE16B88426A
:101490000CD294F94550002269462046FFF751FED0
:1014A0000646681C04D06D1C84F845503046F8BDD3
:1014B000606A0028FAD004F1240001F0F3FA002851
:1014C000F4D00126F2E700002E2E5C4672656552CC
:1014D000544F535C71756575652E63004572726F6C
:1014E000723A25732C25640D0A000000F8B50546F4
:1014F00017480E46C068C068C468201D00F088FA0E
:1015000094F82800410718D5A0692B4641193246A6
:101510002046FFF77BFFA0B1002003460146009064
:101520002A46204601F0FEFB58B90A4940F2112232
:1015300001F11800FEF7A4FE03E020F0010084F89A
:101540002800216A01B02046BDE8F04008470000AD
:1015500070000020882C000870B586B03D4E70E009
:101560000198002806DADDE90301029A9047019804
:10157000002866DB039C606910B1201D00F048FA6A
:1015800005A800F0C3F8054601980A2859D2DFE8FB
:1015900000F00505052F354C05052F3594F828007A
:1015A0002A4640F0010084F828000298A169034609
:1015B00001442046FFF72AFF002842D0216A204636
:1015C000884794F8280040073BD5002000900298F7
:1015D000A169002342181946204601F0A3FB002808
:1015E0002FD14FF44B721CA121A0FEF749FE28E039
:1015F00014F8280F20F00100207022E094F8280051
:1016000040F0010084F828000298A06128B94FF446
:10161000517211A116A0FEF733FEA0692B464119A5
:101620001A462046FFF7F2FE0BE094F828008107E7
:1016300003D4204600F0A8FA03E020F0010084F86B
:101640002800002201A9306801F02CF8002887D179
:1016500006B070BD700000202E2E5C46726565528B
:10166000544F535C74696D6572732E630000000003
:101670004572726F723A25732C25640D0A000000C2
:10168000F8B50D46064600F071FD684600F03EF8DC
:101690000446009810B101F055FAF8BD1148ADB1FB
:1016A00001690968D9B10025311B2A46006800F09C
:1016B000C9FB01F047FA0028EFD10B494FF08050E9
:1016C0000860BFF34F8FBFF36F8FF8BDA642EBD812
:1016D00001F038FA21463046FFF708FFF8BD012532
:1016E000E2E700007000002004ED00E00648416BD6
:1016F000096829B1416BC968C96849688162704746
:101700004FF0FF31FAE700003400002070B50546C5
:1017100001F0F2F8064E0446B068844203D200F0AD
:1017200009F8012000E0002028602046B46070BD68
:1017300070000020F8B5194E27E0C068C46805683D
:10174000201D00F065F9216A2046884794F828009A
:1017500040071AD5A0692844A84206D924616060D0
:10176000211DF06800F07EF90FE0002003460146DD
:1017700000902A46204601F0D5FA30B9084940F2D7
:101780009D3201F11800FEF77BFDF0680168002929
:10179000D3D13169C6E90310F8BD00007000002004
:1017A000882C0008002101E0401C491C0278A52A71
:1017B000FAD0C1F38F00704708484068401C04D03D
:1017C000CA2207A111A0FEF75BFD502080F311880B
:1017D000BFF34F8FBFF36F8FFEE700008400002040
:1017E0002E2E5C4672656552544F535C706F727456
:1017F00061626C655C525644535C41524D5F434D8F
:10180000335C706F72742E63000000004572726F5B
:10181000723A25732C25640D0A000000084CE0681C
:10182000016839B1002139B10020FFF729FFFFF726
:1018300093FEF4E70121F6E7C0680068F5E70000D1
:10184000700000202DE9F041044600F02FF994F9D2
:10185000455004F124060FE0A06C18B12046FFF7B4
:10186000FFFD04E0606A48B1304601F01BF908B1A1
:1018700000F0AEFB6D1E6DB2002DEDDC4FF0FF36BB
:1018800084F8456000F04EF900F010F994F94450E6
:1018900004F1100709E0206948B1384601F002F967
:1018A00008B100F095FB6D1E6DB2002DF3DC84F8DD
:1018B0004460BDE8F04100F035B900002DE9F04189
:1018C0000546002600F052FC334F386808B9FFF790
:1018D00093FC7869054252D1002D50D00835680735
:1018E0000BD005F00700C0F108000544680704D0DC
:1018F00097222AA131A0FEF7C3FC002D3FD07868C3
:1019000085423CD8244918310846046801E0214644
:1019100004466068A84202D220680028F7D13868DF
:10192000B84684422BD00E6820680860606808368C
:10193000401B10280ED96719780704D0C42217A1BC
:101940001EA0FEF79DFC6068401B7860384665600D
:10195000FFF736FD6168D8F804004246401AC8F81F
:101960000400D8F80830984200D2906050690143D2
:101970000020C4E90001D068401CC8F80C0001F048
:10198000E1F8700705D040F2051204A10BA0FEF7A4
:1019900077FC3046BDE8F0819C0000202E2E5C468E
:1019A00072656552544F535C4D656D4D616E675C59
:1019B000686561705F342E63000000004572726FCD
:1019C000723A25732C25640D0A00000010B5031F20
:1019D0004FF080741C601B1F21F001011960191F5A
:1019E000024B0B60143940380A6010BDB91700086B
:1019F00010B500F05BF8FFF7E2F90448006800F06A
:101A000079FABDE8104000F08DB800001000002009
:101A1000D0E9013201699A60D0E901235A604A682D
:101A2000824201D182684A60002202610868401E39
:101A3000086008687047000008B902480068006B39
:101A4000FFF7B0BE3400002000F108014FF0FF3274
:101A5000C0E90112C16001610021016070470021ED
:101A60000161704730B50C68621C02D000F10802B9
:101A700002E0026904E01A4653681D68A542FAD9DB
:101A800053684B6099608A60516008610168491C25
:101A9000016030BD42684A6093688B60936859600A
:101AA000916008610168491C01607047502080F313
:101AB0001188BFF34F8FBFF36F8F09494868401CEF
:101AC000486001280AD10748006810F0FF0F05D0D0
:101AD0004FF4B37204A10FA0FEF7D2BB7047000011
:101AE0008400002004ED00E02E2E5C4672656552F5
:101AF000544F535C706F727461626C655C525644F3
:101B0000535C41524D5F434D335C706F72742E6372
:101B1000000000004572726F723A25732C25640D27
:101B20000A00000010B5084C606828B940F26D1238
:101B300006A111A0FEF7A4FB6068401E606001D101
:101B400080F3118810BD0000840000202E2E5C461A
:101B500072656552544F535C706F727461626C654C
:101B60005C525644535C41524D5F434D335C706F41
:101B700072742E63000000004572726F723A257312
:101B80002C25640D0A00000070B500282DD0174DDB
:101B9000A0F1080460686969084205D140F2191291
:101BA00013A11BA0FEF76CFB206828B14FF48D72C7
:101BB0000FA117A0FEF764FB60686969084214D0A2
:101BC0002268002A11D18843606000F0CFFA606873
:101BD0006968084468602046FFF7F2FB2869401CEA
:101BE0002861BDE8704000F0ADBF70BD9C000020D2
:101BF0002E2E5C4672656552544F535C4D656D4D9B
:101C0000616E675C686561705F342E630000000080
:101C10004572726F723A25732C25640D0A0000001C
:101C200010B50F4864230F4A00686FF07F44B0FB83
:101C3000F3F19160B4FBF1F1D160B0FBF0F12D2430
:101C4000B4FBF1F111614FF0E02100220A618A61D9
:101C5000B0FBF3F0401E48610720086110BD000092
:101C600014000020840000202DE9F041374E044686
:101C7000F068844200D904464FF0E027386920F02C
:101C800001003861B969B268601E02FB0015306955
:101C9000854200D92D1A72B6BFF34F8FBFF36F8FF5
:101CA000FFF7D2F888B37D614FF00008C7F81880BD
:101CB000386940F001003861204600F09EF824B1F8
:101CC000BFF34F8F30BFBFF36F8F204600F086F811
:101CD00062B6BFF34F8FBFF36F8F72B6BFF34F8FF4
:101CE000BFF36F8F062038613869C00315D5B86916
:101CF000B168281A081A3269401E904201D38842FE
:101D000000D9481E7861601E11E0FFE7B86978616C
:101D1000386940F00100386111E0B168B8694C439E
:101D2000221AB2FBF1F0431C4B43991A7961C7F8B0
:101D30001880396941F00101396100F0F1F9B068AA
:101D4000401E786162B6BDE8F0810000840000208A
:101D500010B5FEF76FFA104C10280CD300F1E020FC
:101D600090F8F0032178884205D240F2A5220BA119
:101D700015A0FEF785FA18480068616900F4E06074
:101D8000884207D9BDE8104040F2B52203A10EA059
:101D9000FEF776BA10BD0000840000202E2E5C46AF
:101DA00072656552544F535C706F727461626C65FA
:101DB0005C525644535C41524D5F434D335C706FEF
:101DC00072742E63000000004572726F723A2573C0
:101DD0002C25640D0A0000000CED00E010B5012177
:101DE0000846FEF7DDFD01210220FEF7D9FD0121A5
:101DF000BDE810400420FEF7D3BD10B5002101203E
:101E0000FEF7CEFD00210220FEF7CAFD00210420CE
:101E1000FEF7C6FD0121BDE810400846FEF7A8BD4B
:101E200010B5074B002253F832401CB1521C082A4F
:101E3000F9D310BD43F8321003EBC201486010BD66
:101E4000E800002070B515460E460446FFF72EFE4A
:101E500094F944100020491C01D184F8440094F9FD
:101E60004510491C01D184F84500FFF75BFEA06BCB
:101E700028B92A46314604F1240000F0D9F820465A
:101E8000BDE87040FFF7DEBC10B5040012D00E496B
:101E9000096B29B140F244520CA111A0FEF7F0F9F0
:101EA00000F064F900212046FFF770F800F04AFEC8
:101EB000002807D10E494FF080500860BFF34F8FC4
:101EC000BFF36F8F10BD0000340000202E2E5C4643
:101ED00072656552544F535C7461736B732E63006B
:101EE0004572726F723A25732C25640D0A0000004A
:101EF00004ED00E070B50446FFF7D8FD234D04B9AA
:101F00002C68201DFFF784FD58B9E06A204A00EBD9
:101F1000800152F8211021B90121814028698843AC
:101F20002861A06A18B104F11800FFF771FD686A12
:101F3000401C68622868844207D1211D1548FFF7BC
:101F4000A9FD6868401C686007E0A868401EA8609A
:101F50002046FFF72CF9FFF7C9FBFFF7E3FD68699F
:101F6000002812D0286884420FD1286B28B140F293
:101F7000DA4209A10DA0FEF783F910494FF0805015
:101F80000860BFF34F8FBFF36F8F70BD3400002028
:101F900028010020E40300202E2E5C467265655265
:101FA000544F535C7461736B732E63004572726F90
:101FB000723A25732C25640D0A00000004ED00E040
:101FC00002490A6A0260C968416070473400002013
:101FD00001490120C86170473400002070B50D46EA
:101FE000040005D140F6FA3207A10CA0FEF748F92B
:101FF0000E48016820461831FFF734FD2846BDE839
:1020000070400121FEF7C2BF2E2E5C4672656552FC
:10201000544F535C7461736B732E63004572726F1F
:10202000723A25732C25640D0A000000340000204C
:1020300070B514460E46050005D140F6254209A1AB
:102040000DA0FEF71DF91048016828461831FFF76A
:1020500021FD0CB14FF0FF3621463046BDE87040FF
:10206000FEF794BF2E2E5C4672656552544F535C4A
:102070007461736B732E63004572726F723A2573CD
:102080002C25640D0A000000340000201CB5174800
:102090000024CDE900402346822215A1164800F015
:1020A000F1FB012803D100F003FE01280AD0401CF7
:1020B0001BD102B040F62A02BDE810400FA114A0C7
:1020C000FEF7DEB8502080F31188BFF34F8FBFF3C7
:1020D0006F8F06484FF0FF312C388162012141613A
:1020E000C460BDE81C4000F087B81CBD6000002043
:1020F00049444C4500000000451200082E2E5C4665
:1021000072656552544F535C7461736B732E630038
:102110004572726F723A25732C25640D0A00000017
:1021200070B5084D0446E868A96A2044884205D97C
:1021300040F6292204A109A0FEF7A2F8E86820448D
:10214000E86070BD340000202E2E5C46726565523A
:10215000544F535C7461736B732E63004572726FDE
:10216000723A25732C25640D0A0000000248016BA9
:10217000491C0163704700003400002070B5134D06
:10218000286B10B10120E86170BD0020E86128696A
:102190000F4EB0FA80F0C0F11F0000EB800456F83B
:1021A000240028B940F6E1320AA10FA0FEF768F832
:1021B00006EB840000F108024168496841609142E1
:1021C00001D149684160C868286070BD34000020B2
:1021D000280100202E2E5C4672656552544F535CD8
:1021E0007461736B732E63004572726F723A25735C
:1021F0002C25640D0A0000007CB52A4D287801903A
:10220000FF20287028788DF800009DF800009DF8C8
:10221000001000F0F000884205D04FF48A7222A12D
:102220002CA0FEF72DF89DF800002E4C00F0500079
:1022300020700720606106E0401E60619DF800008C
:1022400040008DF800009DF8000000066069F3D49E
:1022500003280ED040F2271213A11EA0FEF710F89B
:102260006069032805D04FF498720FA119A0FEF7FA
:1022700007F8207D000200F4E0606061019828709A
:102280001948016841F470010160016841F0704132
:102290000160FFF7C5FC00206060FDF795FF00209E
:1022A0007CBD000000E400E02E2E5C4672656552A5
:1022B000544F535C706F727461626C655C5256442B
:1022C000535C41524D5F434D335C706F72742E63AB
:1022D000000000004572726F723A25732C25640D60
:1022E0000A0000008400002020ED00E010B550201E
:1022F00080F31188BFF34F8FBFF36F8F00F002FBA5
:1023000018B104494FF080500860002080F3118814
:1023100010BD000004ED00E02DE9F04117460E4627
:10232000050005D14FF4BB720EA113A0FDF7A8FF65
:1023300005FB06F05430FFF7C1FA04000ED004F19B
:1023400054006EB12060C4E90F562046012100F010
:102350001BF884F8507000212046A164BDE8F0818C
:102360002460F0E72E2E5C4672656552544F535C34
:1023700071756575652E63004572726F723A2573CB
:102380002C25640D0A00000070B50D46040005D12F
:1023900040F203121CA121A0FDF772FFFFF786FB9C
:1023A000D4E90F20216802FB0011A1600021A16384
:1023B000216861600A46D4E90F01401E00FB01213B
:1023C000E16021464FF0FF3001F8440F487004F1FE
:1023D00010004DB1FFF738FB04F12400FFF734FB88
:1023E000FFF7A0FB012070BD21690029F8D000F0A3
:1023F00059FB0028F4D00D494FF080500860BFF31E
:102400004F8FBFF36F8FEBE72E2E5C4672656552E0
:10241000544F535C71756575652E63004572726F1C
:10242000723A25732C25640D0A00000004ED00E0CB
:102430002DE9FF4F83B01F468B4604004FF0000686
:1024400005D140F2EA2252A156A0FDF719FFBBF1D7
:10245000000F07D1206C28B140F2EB224CA151A013
:10246000FDF70EFF022F08D1E06B012805D04FF4D5
:102470003B7247A14BA0FDF703FF00F02FFA38B9DC
:10248000059828B140F2EF2241A146A0FDF7F8FEE1
:102490004FF0000A4FF08058DFF81891FFF706FB65
:1024A000A06BE16B884205D3022F03D0059818B3C7
:1024B0002EB328E0A56B3A4659462046FEF741FE6A
:1024C000A16C31B1022F00D185B92046FEF7C8FFBB
:1024D00005E0616A19B104F1240000F0E3FA28B1C3
:1024E000C9F80080BFF34F8FBFF36F8FFFF71AFB60
:1024F000012007B0BDE8F08FFFF714FB21E068462C
:10250000FFF75EFD0126FFF70DFBFFF72FFEFFF73C
:10251000CDFA94F94400401C01D184F844A094F908
:102520004500401C01D184F845A0FFF7FBFA05A93E
:10253000684600F05FF930B12046FFF783F900F0FC
:1025400001FB0020D5E7FFF7B1FAA06BE16B8842F1
:1025500001D1012500E00025FFF7E4FA95B104F16F
:1025600010000599FFF73AFD2046FFF76BF900F0E0
:10257000E9FA002892D1C9F80080BFF34F8FBFF36A
:102580006F8F8BE72046FFF75DF900F0DBFA85E7F8
:102590002E2E5C4672656552544F535C717565759D
:1025A000652E63004572726F723A25732C25640D97
:1025B0000A00000004ED00E02DE9F0471F46154633
:1025C0008A46040005D14FF46F722DA131A0FDF7AA
:1025D00057FEBAF1000F07D1206C28B140F2BD328E
:1025E00027A12CA0FDF74CFE022F08D1E06B01289B
:1025F00005D040F2BE3222A126A0FDF741FEFFF732
:10260000A7FB5021EFF3118081F31188BFF34F8FA7
:10261000BFF36F8F8046A06BE16B884206D3022F19
:1026200004D0002088F31188BDE8F08794F9456054
:10263000D4F838903A4651462046FEF782FD701C89
:1026400004D0761C84F845600120EBE7A06C0126DD
:1026500040B1022F02D1B9F1000FF5D12046FEF7AB
:10266000FFFE06E0606A0028EED004F1240000F0CE
:1026700019FA0028E8D0002DE6D02E60E4E700002B
:102680002E2E5C4672656552544F535C71756575AC
:10269000652E63004572726F723A25732C25640DA6
:1026A0000A0000002DE9F74783B08A4604004FF086
:1026B000000605D140F2045244A149A0FDF7E0FD17
:1026C000BAF1000F07D1206C28B14FF4A1623FA1ED
:1026D00043A0FDF7D5FD00F001F938B9059828B100
:1026E00040F20D5239A13EA0FDF7CAFD00274FF080
:1026F0008058DFF8FC90FFF7D9F9A56BC5B15146BA
:102700002046FEF70BFD6D1EA563206950B104F154
:10271000100000F0C7F928B1C9F80080BFF34F8F4F
:10272000BFF36F8FFFF7FEF9012006B0BDE8F08719
:10273000059808B11EB106E0FFF7F4F927E06846F6
:10274000FFF73EFC0126FFF7EDF9FFF70FFDFFF75E
:10275000ADF994F94400401C01D184F8447094F917
:102760004500401C01D184F84570FFF7DBF905A94D
:10277000684600F03FF8002820460AD0FFF762F8CC
:1027800000F0E0F92046FEF75DFE0028B3D00020FF
:10279000CBE7FEF757FE90B104F124000599FFF74F
:1027A0001DFC2046FFF74EF800F0CCF90028A2D11E
:1027B000C9F80080BFF34F8FBFF36F8F9BE72046B0
:1027C000FFF740F800F0BEF995E700002E2E5C46BA
:1027D00072656552544F535C71756575652E630063
:1027E0004572726F723A25732C25640D0A00000041
:1027F00004ED00E02DE9F0410C46050005D140F65E
:10280000CE4216A11AA0FDF73BFD2CB940F6CF42EF
:1028100012A117A0FDF734FDFFF748F9184EF16833
:102820006B682268C81A571C07D02F68366AB742EF
:1028300009D08B4207D8012400E00024FFF772F989
:102840002046BDE8F081824205D9101A2060284652
:10285000FFF7B6FBF1E700202060ECE72E2E5C4688
:1028600072656552544F535C7461736B732E6300D1
:102870004572726F723A25732C25640D0A000000B0
:10288000340000202DE9FF5F8346DDE90E8799467D
:1028900016468A469000FFF711F805001AD060200E
:1028A000FFF70CF8040012D025630021CDE90241A6
:1028B000CDE900874B46324651465846FEF71AFD91
:1028C0002046FEF79BFB012004B0BDE8F09F2846A0
:1028D000FFF75AF94FF0FF30F6E70000054841696D
:1028E00019B1006B18B10020704701207047022019
:1028F00070470000340000200148C06870470000A5
:10290000340000202DE9F0412E4F0026386B28B10D
:10291000B869401CB8613046BDE8F081FD686D1CA7
:10292000FD6011D1786B006828B140F6A92226A17C
:102930002AA0FDF7A5FC786BB96B7963B863386A98
:10294000401C3862FEF7D2FEB86ADFF8A0808542EC
:1029500009D3786B0068A0B1786BC068C468606800
:10296000854211D2B8623868C06A00EB800158F81D
:102970002100012800D90126F8690028CBD00126C2
:10298000C9E74FF0FF30EDE7201DFFF741F8A06ADF
:1029900018B104F11800FFF73BF8E06A01213A6929
:1029A00081401143396100EB800108EB8100211D5A
:1029B000FFF770F8E06A3968C96A8842C9D301260E
:1029C000C7E70000340000202E2E5C467265655279
:1029D000544F535C7461736B732E63004572726F56
:1029E000723A25732C25640D0A000000280100208E
:1029F00070B504004FF000063CD01F4D286884429B
:102A000005D041F213021DA121A0FDF739FC606D34
:102A100028B941F2140219A11DA0FDF731FC606D27
:102A2000401E6065226DE16A914223D010BB201DDB
:102A3000FEF7EEFF1A49012250B9E06A00EB80036D
:102A400051F8233023B92B6902FA00F083432B613C
:102A5000206DE062C0F12000A061E06A2B69824035
:102A60001A432A6100EB800001EB8000211DFFF773
:102A700011F80126304670BD340000202E2E5C4631
:102A800072656552544F535C7461736B732E6300AF
:102A90004572726F723A25732C25640D0A0000008E
:102AA000280100202DE9F041C068C4682CB940F627
:102AB000554218A11CA0FDF7E3FB04F118000746DE
:102AC000FEF7A6FF1C4D286B012660B139461B4856
:102AD000FEF7E0FFE06A2968C96A884217D9012039
:102AE000EE61BDE8F081201DFEF792FFE06A2A69E1
:102AF00006FA00F111432961114900EB800001EB56
:102B00008000211DFEF7C6FFFEF7F0FDE2E7002082
:102B1000E7E700002E2E5C4672656552544F535C09
:102B20007461736B732E63004572726F723A257312
:102B30002C25640D0A00000034000020D003002082
:102B4000280100202DE9F0472B4D00242746286B53
:102B500028B940F6990229A12DA0FDF791FBFEF7B7
:102B6000A5FF286B401E2863286BE8BBA8682C498A
:102B70000126C8B3A1F52A798846D8F80010E9B132
:102B8000D8F80C00C46804F11800FEF741FF201DBE
:102B9000FEF73EFFE06A2A6906FA00F11143296157
:102BA00000EB800109EB8100211DFEF773FFE06A55
:102BB0002968C96A8842E0D3EE61DEE70CB1FEF70E
:102BC00095FDAC693CB1FFF79DFE00B1EE61641E5E
:102BD000F9D10020A861E86930B11249012738070E
:102BE0000860BFF34F8F00E001E0BFF36F8FFEF787
:102BF00099FF3846BDE8F087340000202E2E5C4651
:102C000072656552544F535C7461736B732E63002D
:102C10004572726F723A25732C25640D0A0000000C
:102C2000D003002004ED00E02DE9F0470746994667
:102C300016460D462C20DDF820A0FEF73FFE0400CE
:102C40001ED0B84600204F4684F82800D1462DB942
:102C500040F265120CA112A0FDF712FBFEF736FA46
:102C600004F11801C4F8008081E8A002201DFEF7DD
:102C7000F6FE2EB194F8280040F0040184F82810E4
:102C80002046BDE8F08700002E2E5C467265655236
:102C9000544F535C74696D6572732E6300000000BD
:102CA0004572726F723A25732C25640D0A0000007C
:102CB0001CB50024FEF70AFA0C48006868B10B49FD
:102CC0001F20091DCDE9000100234FF4827208A1E5
:102CD0000948FFF7D7FD040005D140F2131207A100
:102CE0000CA0FDF7CDFA20461CBD000070000020AE
:102CF000546D7220537663001D1800082E2E5C461A
:102D000072656552544F535C74696D6572732E63BE
:102D1000000000004572726F723A25732C25640D15
:102D20000A0000002DE9FF47DDF830A099469046E3
:102D30000D4606004FF0000705D14FF4C17212A1F5
:102D400017A0FDF79DFA1A4C206880B1CDE9005814
:102D50000296062D11DAFFF7C1FD02284FF000039D
:102D600009D0002269462068FFF762FB074604B0DD
:102D70003846BDE8F0875246F4E700234A466946E4
:102D8000FFF71AFCF2E700002E2E5C4672656552D2
:102D9000544F535C74696D6572732E6300000000BC
:102DA0004572726F723A25732C25640D0A0000007B
:102DB0007000002052756E696E675F5374617465B0
:102DC000006765745F636869705F6964006D61695D
:102DD0006E0030313233343536373839414243446E
:102DE0004546403058003031323334353637383983
:102DF000616263646566403078000400000800008A
:102E00000000000000020001000010002C2E00084D
:102E100000000020D800000030010008042F000846
:102E2000D8000020C03B00004C010008000000005A
:102E30000000000000000000000000000000000092
:102E40000048E801030406080C10182030000000B8
:102E5000000000000001020304060708090000004A
:102E60000000000000000000000000000000000062
:102E70000000000000000000000000000000000052
:102E80000000000000000000000000000000000042
:102E90000000000000000000000000000000000032
:102EA0000000000000000000000000000000000022
:102EB00000000000AAAAAAAA00000000000000006A
:102EC0000000000000000000000000000000000002
:102ED00000000000000000000000000000000000F2
:102EE0000000000000000000030406080C10182079
:102EF0003000000000010203040102030406070879
:042F000009000000C4
:040000050800023DB0
:00000001FF
